{
  "contractName": "Auction",
  "abi": [
    {
      "inputs": [],
      "name": "countSessionOpen",
      "outputs": [
        {
          "internalType": "uint256",
          "name": "",
          "type": "uint256"
        }
      ],
      "stateMutability": "view",
      "type": "function",
      "constant": true
    },
    {
      "inputs": [
        {
          "internalType": "address",
          "name": "",
          "type": "address"
        }
      ],
      "name": "rooms",
      "outputs": [
        {
          "internalType": "address",
          "name": "addressUser",
          "type": "address"
        },
        {
          "internalType": "uint256",
          "name": "countSession",
          "type": "uint256"
        }
      ],
      "stateMutability": "view",
      "type": "function",
      "constant": true
    },
    {
      "inputs": [
        {
          "internalType": "uint256",
          "name": "",
          "type": "uint256"
        }
      ],
      "name": "sessionsOpen",
      "outputs": [
        {
          "internalType": "uint256",
          "name": "id",
          "type": "uint256"
        },
        {
          "internalType": "string",
          "name": "name",
          "type": "string"
        },
        {
          "internalType": "uint256",
          "name": "totalProduct",
          "type": "uint256"
        },
        {
          "internalType": "uint256",
          "name": "openTime",
          "type": "uint256"
        },
        {
          "internalType": "uint256",
          "name": "closeTime",
          "type": "uint256"
        },
        {
          "internalType": "enum Auction.SessionStatus",
          "name": "status",
          "type": "uint8"
        },
        {
          "internalType": "address",
          "name": "ownerSession",
          "type": "address"
        },
        {
          "internalType": "uint256",
          "name": "totalPrice",
          "type": "uint256"
        }
      ],
      "stateMutability": "view",
      "type": "function",
      "constant": true
    },
    {
      "inputs": [
        {
          "internalType": "string",
          "name": "name",
          "type": "string"
        },
        {
          "components": [
            {
              "internalType": "string",
              "name": "name",
              "type": "string"
            },
            {
              "internalType": "uint256",
              "name": "startPrice",
              "type": "uint256"
            },
            {
              "internalType": "string",
              "name": "linkImage",
              "type": "string"
            }
          ],
          "internalType": "struct Auction.ProductInput[]",
          "name": "productInput",
          "type": "tuple[]"
        }
      ],
      "name": "createSession",
      "outputs": [],
      "stateMutability": "nonpayable",
      "type": "function"
    },
    {
      "inputs": [
        {
          "internalType": "uint256",
          "name": "sessionId",
          "type": "uint256"
        }
      ],
      "name": "openSession",
      "outputs": [],
      "stateMutability": "nonpayable",
      "type": "function"
    },
    {
      "inputs": [
        {
          "internalType": "uint256",
          "name": "sessionId",
          "type": "uint256"
        },
        {
          "internalType": "uint256",
          "name": "index",
          "type": "uint256"
        }
      ],
      "name": "closeSession",
      "outputs": [],
      "stateMutability": "nonpayable",
      "type": "function"
    },
    {
      "inputs": [
        {
          "internalType": "address",
          "name": "ownerSession",
          "type": "address"
        },
        {
          "internalType": "uint256",
          "name": "sessionId",
          "type": "uint256"
        }
      ],
      "name": "getSessionInfo",
      "outputs": [
        {
          "internalType": "uint256",
          "name": "id",
          "type": "uint256"
        },
        {
          "internalType": "uint256",
          "name": "totalProduct",
          "type": "uint256"
        },
        {
          "internalType": "uint256",
          "name": "openTime",
          "type": "uint256"
        },
        {
          "internalType": "uint256",
          "name": "closeTime",
          "type": "uint256"
        },
        {
          "internalType": "enum Auction.SessionStatus",
          "name": "status",
          "type": "uint8"
        }
      ],
      "stateMutability": "view",
      "type": "function",
      "constant": true
    },
    {
      "inputs": [],
      "name": "getListSessionOpen",
      "outputs": [
        {
          "components": [
            {
              "internalType": "uint256",
              "name": "id",
              "type": "uint256"
            },
            {
              "internalType": "string",
              "name": "name",
              "type": "string"
            },
            {
              "internalType": "uint256",
              "name": "totalProduct",
              "type": "uint256"
            },
            {
              "internalType": "uint256",
              "name": "openTime",
              "type": "uint256"
            },
            {
              "internalType": "uint256",
              "name": "closeTime",
              "type": "uint256"
            },
            {
              "internalType": "enum Auction.SessionStatus",
              "name": "status",
              "type": "uint8"
            },
            {
              "internalType": "address",
              "name": "ownerSession",
              "type": "address"
            },
            {
              "internalType": "uint256",
              "name": "totalPrice",
              "type": "uint256"
            }
          ],
          "internalType": "struct Auction.SessionInfo[]",
          "name": "",
          "type": "tuple[]"
        }
      ],
      "stateMutability": "view",
      "type": "function",
      "constant": true
    },
    {
      "inputs": [],
      "name": "getMyListSession",
      "outputs": [
        {
          "components": [
            {
              "internalType": "uint256",
              "name": "id",
              "type": "uint256"
            },
            {
              "internalType": "string",
              "name": "name",
              "type": "string"
            },
            {
              "internalType": "uint256",
              "name": "totalProduct",
              "type": "uint256"
            },
            {
              "internalType": "uint256",
              "name": "openTime",
              "type": "uint256"
            },
            {
              "internalType": "uint256",
              "name": "closeTime",
              "type": "uint256"
            },
            {
              "internalType": "enum Auction.SessionStatus",
              "name": "status",
              "type": "uint8"
            },
            {
              "internalType": "address",
              "name": "ownerSession",
              "type": "address"
            },
            {
              "internalType": "uint256",
              "name": "totalPrice",
              "type": "uint256"
            }
          ],
          "internalType": "struct Auction.SessionInfo[]",
          "name": "",
          "type": "tuple[]"
        }
      ],
      "stateMutability": "view",
      "type": "function",
      "constant": true
    },
    {
      "inputs": [
        {
          "internalType": "address",
          "name": "ownerSession",
          "type": "address"
        },
        {
          "internalType": "uint256",
          "name": "sessionId",
          "type": "uint256"
        }
      ],
      "name": "getProductBySession",
      "outputs": [
        {
          "components": [
            {
              "internalType": "uint256",
              "name": "id",
              "type": "uint256"
            },
            {
              "internalType": "string",
              "name": "name",
              "type": "string"
            },
            {
              "internalType": "uint256",
              "name": "startPrice",
              "type": "uint256"
            },
            {
              "internalType": "string",
              "name": "linkImage",
              "type": "string"
            },
            {
              "internalType": "enum Auction.ProductStatus",
              "name": "status",
              "type": "uint8"
            },
            {
              "internalType": "address",
              "name": "addressWinner",
              "type": "address"
            },
            {
              "internalType": "uint256",
              "name": "finalPrice",
              "type": "uint256"
            },
            {
              "internalType": "address",
              "name": "ownerProduct",
              "type": "address"
            }
          ],
          "internalType": "struct Auction.Product[]",
          "name": "",
          "type": "tuple[]"
        }
      ],
      "stateMutability": "view",
      "type": "function",
      "constant": true
    },
    {
      "inputs": [
        {
          "internalType": "address",
          "name": "ownerProduct",
          "type": "address"
        },
        {
          "internalType": "uint256",
          "name": "sessionId",
          "type": "uint256"
        },
        {
          "internalType": "uint256",
          "name": "productId",
          "type": "uint256"
        },
        {
          "internalType": "uint256",
          "name": "price",
          "type": "uint256"
        }
      ],
      "name": "upPriceProduct",
      "outputs": [],
      "stateMutability": "payable",
      "type": "function",
      "payable": true
    },
    {
      "inputs": [
        {
          "internalType": "address",
          "name": "ownerSession",
          "type": "address"
        },
        {
          "internalType": "uint256",
          "name": "sessionId",
          "type": "uint256"
        },
        {
          "internalType": "bool",
          "name": "isAccept",
          "type": "bool"
        },
        {
          "internalType": "string",
          "name": "secretInput",
          "type": "string"
        }
      ],
      "name": "confirmSession",
      "outputs": [],
      "stateMutability": "nonpayable",
      "type": "function"
    }
  ],
  "bytecode": "0x60806040526040518060400160405280600c81526020017f6461796c616d61746b6861750000000000000000000000000000000000000000815250600090816200004a9190620002d9565b503480156200005857600080fd5b50620003c0565b600081519050919050565b7f4e487b7100000000000000000000000000000000000000000000000000000000600052604160045260246000fd5b7f4e487b7100000000000000000000000000000000000000000000000000000000600052602260045260246000fd5b60006002820490506001821680620000e157607f821691505b602082108103620000f757620000f662000099565b5b50919050565b60008190508160005260206000209050919050565b60006020601f8301049050919050565b600082821b905092915050565b600060088302620001617fffffffffffffffffffffffffffffffffffffffffffffffffffffffffffffffff8262000122565b6200016d868362000122565b95508019841693508086168417925050509392505050565b6000819050919050565b6000819050919050565b6000620001ba620001b4620001ae8462000185565b6200018f565b62000185565b9050919050565b6000819050919050565b620001d68362000199565b620001ee620001e582620001c1565b8484546200012f565b825550505050565b600090565b62000205620001f6565b62000212818484620001cb565b505050565b5b818110156200023a576200022e600082620001fb565b60018101905062000218565b5050565b601f82111562000289576200025381620000fd565b6200025e8462000112565b810160208510156200026e578190505b620002866200027d8562000112565b83018262000217565b50505b505050565b600082821c905092915050565b6000620002ae600019846008026200028e565b1980831691505092915050565b6000620002c983836200029b565b9150826002028217905092915050565b620002e4826200005f565b67ffffffffffffffff8111156200030057620002ff6200006a565b5b6200030c8254620000c8565b620003198282856200023e565b600060209050601f8311600181146200035157600084156200033c578287015190505b620003488582620002bb565b865550620003b8565b601f1984166200036186620000fd565b60005b828110156200038b5784890151825560018201915060208501945060208101905062000364565b86831015620003ab5784890151620003a7601f8916826200029b565b8355505b6001600288020188555050505b505050505050565b61382180620003d06000396000f3fe6080604052600436106100a75760003560e01c806377cd53001161006457806377cd5300146101c257806384135b7b146101eb5780638d17eb301461021457806390efc9161461023f578063b442f8c714610280578063b8c426cb146102a9576100a7565b80630ce13100146100ac5780631f963d98146100d757806323af8d8b1461011457806326df29fa1461013057806329e815211461015b5780634800fcae14610199575b600080fd5b3480156100b857600080fd5b506100c16102ed565b6040516100ce91906126f6565b60405180910390f35b3480156100e357600080fd5b506100fe60048036038101906100f991906127af565b6102f3565b60405161010b9190612a8d565b60405180910390f35b61012e60048036038101906101299190612aaf565b6106dc565b005b34801561013c57600080fd5b506101456109f4565b6040516101529190612cd0565b60405180910390f35b34801561016757600080fd5b50610182600480360381019061017d9190612cf2565b610ba9565b604051610190929190612d2e565b60405180910390f35b3480156101a557600080fd5b506101c060048036038101906101bb9190612d57565b610bed565b005b3480156101ce57600080fd5b506101e960048036038101906101e49190613058565b611133565b005b3480156101f757600080fd5b50610212600480360381019061020d9190613108565b6116ca565b005b34801561022057600080fd5b506102296118d9565b6040516102369190612cd0565b60405180910390f35b34801561024b57600080fd5b50610266600480360381019061026191906127af565b611cf6565b60405161027795949392919061319a565b60405180910390f35b34801561028c57600080fd5b506102a760048036038101906102a291906131ed565b611ed2565b005b3480156102b557600080fd5b506102d060048036038101906102cb91906131ed565b612483565b6040516102e4989796959493929190613264565b60405180910390f35b60045481565b60606000600160008573ffffffffffffffffffffffffffffffffffffffff1673ffffffffffffffffffffffffffffffffffffffff16815260200190815260200160002060010160008481526020019081526020016000206003015467ffffffffffffffff81111561036757610366612da1565b5b6040519080825280602002602001820160405280156103a057816020015b61038d612590565b8152602001906001900390816103855790505b50905060005b600160008673ffffffffffffffffffffffffffffffffffffffff1673ffffffffffffffffffffffffffffffffffffffff1681526020019081526020016000206001016000858152602001908152602001600020600301548110156106d157600160008673ffffffffffffffffffffffffffffffffffffffff1673ffffffffffffffffffffffffffffffffffffffff16815260200190815260200160002060010160008581526020019081526020016000206002016000828152602001908152602001600020604051806101000160405290816000820154815260200160018201805461049190613318565b80601f01602080910402602001604051908101604052809291908181526020018280546104bd90613318565b801561050a5780601f106104df5761010080835404028352916020019161050a565b820191906000526020600020905b8154815290600101906020018083116104ed57829003601f168201915b505050505081526020016002820154815260200160038201805461052d90613318565b80601f016020809104026020016040519081016040528092919081815260200182805461055990613318565b80156105a65780601f1061057b576101008083540402835291602001916105a6565b820191906000526020600020905b81548152906001019060200180831161058957829003601f168201915b505050505081526020016004820160009054906101000a900460ff1660028111156105d4576105d36128ba565b5b60028111156105e6576105e56128ba565b5b81526020016004820160019054906101000a900473ffffffffffffffffffffffffffffffffffffffff1673ffffffffffffffffffffffffffffffffffffffff1673ffffffffffffffffffffffffffffffffffffffff168152602001600582015481526020016006820160009054906101000a900473ffffffffffffffffffffffffffffffffffffffff1673ffffffffffffffffffffffffffffffffffffffff1673ffffffffffffffffffffffffffffffffffffffff16815250508282815181106106b3576106b2613349565b5b602002602001018190525080806106c9906133a7565b9150506103a6565b508091505092915050565b600073ffffffffffffffffffffffffffffffffffffffff16600160008673ffffffffffffffffffffffffffffffffffffffff1673ffffffffffffffffffffffffffffffffffffffff1681526020019081526020016000206001016000858152602001908152602001600020600201600084815260200190815260200160002060040160019054906101000a900473ffffffffffffffffffffffffffffffffffffffff1673ffffffffffffffffffffffffffffffffffffffff16146108d657600160008573ffffffffffffffffffffffffffffffffffffffff1673ffffffffffffffffffffffffffffffffffffffff1681526020019081526020016000206001016000848152602001908152602001600020600201600083815260200190815260200160002060040160019054906101000a900473ffffffffffffffffffffffffffffffffffffffff1673ffffffffffffffffffffffffffffffffffffffff166108fc600160008773ffffffffffffffffffffffffffffffffffffffff1673ffffffffffffffffffffffffffffffffffffffff16815260200190815260200160002060010160008681526020019081526020016000206002016000858152602001908152602001600020600501549081150290604051600060405180830381858888f193505050501580156108d4573d6000803e3d6000fd5b505b80600160008673ffffffffffffffffffffffffffffffffffffffff1673ffffffffffffffffffffffffffffffffffffffff168152602001908152602001600020600101600085815260200190815260200160002060020160008481526020019081526020016000206005018190555033600160008673ffffffffffffffffffffffffffffffffffffffff1673ffffffffffffffffffffffffffffffffffffffff1681526020019081526020016000206001016000858152602001908152602001600020600201600084815260200190815260200160002060040160016101000a81548173ffffffffffffffffffffffffffffffffffffffff021916908373ffffffffffffffffffffffffffffffffffffffff16021790555050505050565b60606003805480602002602001604051908101604052809291908181526020016000905b82821015610ba057838290600052602060002090600702016040518061010001604052908160008201548152602001600182018054610a5690613318565b80601f0160208091040260200160405190810160405280929190818152602001828054610a8290613318565b8015610acf5780601f10610aa457610100808354040283529160200191610acf565b820191906000526020600020905b815481529060010190602001808311610ab257829003601f168201915b505050505081526020016002820154815260200160038201548152602001600482015481526020016005820160009054906101000a900460ff166004811115610b1b57610b1a6128ba565b5b6004811115610b2d57610b2c6128ba565b5b81526020016005820160019054906101000a900473ffffffffffffffffffffffffffffffffffffffff1673ffffffffffffffffffffffffffffffffffffffff1673ffffffffffffffffffffffffffffffffffffffff16815260200160068201548152505081526020019060010190610a18565b50505050905090565b60016020528060005260406000206000915090508060000160009054906101000a900473ffffffffffffffffffffffffffffffffffffffff16908060020154905082565b600033905060036004811115610c0657610c056128ba565b5b600160008373ffffffffffffffffffffffffffffffffffffffff1673ffffffffffffffffffffffffffffffffffffffff168152602001908152602001600020600101600085815260200190815260200160002060070160009054906101000a900460ff166004811115610c7c57610c7b6128ba565b5b0361112e576004600160008373ffffffffffffffffffffffffffffffffffffffff1673ffffffffffffffffffffffffffffffffffffffff168152602001908152602001600020600101600085815260200190815260200160002060070160006101000a81548160ff02191690836004811115610cfb57610cfa6128ba565b5b021790555042600160008373ffffffffffffffffffffffffffffffffffffffff1673ffffffffffffffffffffffffffffffffffffffff16815260200190815260200160002060010160008581526020019081526020016000206005018190555060038281548110610d6f57610d6e613349565b5b9060005260206000209060070201600080820160009055600182016000610d969190612613565b6002820160009055600382016000905560048201600090556005820160006101000a81549060ff02191690556005820160016101000a81549073ffffffffffffffffffffffffffffffffffffffff02191690556006820160009055505060046000815480929190610e06906133ef565b919050555060005b600160008373ffffffffffffffffffffffffffffffffffffffff1673ffffffffffffffffffffffffffffffffffffffff16815260200190815260200160002060010160008581526020019081526020016000206003015481101561101557600073ffffffffffffffffffffffffffffffffffffffff16600160008473ffffffffffffffffffffffffffffffffffffffff1673ffffffffffffffffffffffffffffffffffffffff1681526020019081526020016000206001016000868152602001908152602001600020600201600083815260200190815260200160002060040160019054906101000a900473ffffffffffffffffffffffffffffffffffffffff1673ffffffffffffffffffffffffffffffffffffffff161461100257600160008373ffffffffffffffffffffffffffffffffffffffff1673ffffffffffffffffffffffffffffffffffffffff1681526020019081526020016000206001016000858152602001908152602001600020600201600082815260200190815260200160002060050154600160008473ffffffffffffffffffffffffffffffffffffffff1673ffffffffffffffffffffffffffffffffffffffff16815260200190815260200160002060010160008681526020019081526020016000206006016000828254610ffa9190613418565b925050819055505b808061100d906133a7565b915050610e0e565b50674563918244f40000600160008373ffffffffffffffffffffffffffffffffffffffff1673ffffffffffffffffffffffffffffffffffffffff168152602001908152602001600020600101600085815260200190815260200160002060060154111561112d573373ffffffffffffffffffffffffffffffffffffffff166108fc674563918244f40000600160008573ffffffffffffffffffffffffffffffffffffffff1673ffffffffffffffffffffffffffffffffffffffff168152602001908152602001600020600101600087815260200190815260200160002060060154611100919061344c565b9081150290604051600060405180830381858888f1935050505015801561112b573d6000803e3d6000fd5b505b5b505050565b600073ffffffffffffffffffffffffffffffffffffffff16600160003373ffffffffffffffffffffffffffffffffffffffff1673ffffffffffffffffffffffffffffffffffffffff16815260200190815260200160002060000160009054906101000a900473ffffffffffffffffffffffffffffffffffffffff1673ffffffffffffffffffffffffffffffffffffffff16036112635733600160003373ffffffffffffffffffffffffffffffffffffffff1673ffffffffffffffffffffffffffffffffffffffff16815260200190815260200160002060000160006101000a81548173ffffffffffffffffffffffffffffffffffffffff021916908373ffffffffffffffffffffffffffffffffffffffff1602179055506002600081548092919061125d906133a7565b91905055505b6000600160003373ffffffffffffffffffffffffffffffffffffffff1673ffffffffffffffffffffffffffffffffffffffff16815260200190815260200160002060020154905060005b825181101561152d576040518061010001604052808281526020018483815181106112db576112da613349565b5b60200260200101516000015181526020018483815181106112ff576112fe613349565b5b602002602001015160200151815260200184838151811061132357611322613349565b5b602002602001015160400151815260200160006002811115611348576113476128ba565b5b8152602001600073ffffffffffffffffffffffffffffffffffffffff16815260200184838151811061137d5761137c613349565b5b60200260200101516020015181526020013373ffffffffffffffffffffffffffffffffffffffff16815250600160003373ffffffffffffffffffffffffffffffffffffffff1673ffffffffffffffffffffffffffffffffffffffff1681526020019081526020016000206001016000848152602001908152602001600020600201600083815260200190815260200160002060008201518160000155602082015181600101908161142e919061362c565b5060408201518160020155606082015181600301908161144e919061362c565b5060808201518160040160006101000a81548160ff0219169083600281111561147a576114796128ba565b5b021790555060a08201518160040160016101000a81548173ffffffffffffffffffffffffffffffffffffffff021916908373ffffffffffffffffffffffffffffffffffffffff16021790555060c0820151816005015560e08201518160060160006101000a81548173ffffffffffffffffffffffffffffffffffffffff021916908373ffffffffffffffffffffffffffffffffffffffff1602179055509050508080611525906133a7565b9150506112ad565b508151600160003373ffffffffffffffffffffffffffffffffffffffff1673ffffffffffffffffffffffffffffffffffffffff1681526020019081526020016000206001016000838152602001908152602001600020600301819055506000600160003373ffffffffffffffffffffffffffffffffffffffff1673ffffffffffffffffffffffffffffffffffffffff168152602001908152602001600020600101600083815260200190815260200160002060070160006101000a81548160ff02191690836004811115611604576116036128ba565b5b021790555082600160003373ffffffffffffffffffffffffffffffffffffffff1673ffffffffffffffffffffffffffffffffffffffff1681526020019081526020016000206001016000838152602001908152602001600020600101908161166c919061362c565b50600160003373ffffffffffffffffffffffffffffffffffffffff1673ffffffffffffffffffffffffffffffffffffffff16815260200190815260200160002060020160008154809291906116c0906133a7565b9190505550505050565b600080546116d790613318565b9050815114158015611736575060006040516020016116f6919061378c565b604051602081830303815290604052805190602001208160405160200161171d91906137d4565b6040516020818303038152906040528051906020012014155b6118d3576000600481111561174e5761174d6128ba565b5b600160008673ffffffffffffffffffffffffffffffffffffffff1673ffffffffffffffffffffffffffffffffffffffff168152602001908152602001600020600101600085815260200190815260200160002060070160009054906101000a900460ff1660048111156117c4576117c36128ba565b5b036118d35781156118525760018060008673ffffffffffffffffffffffffffffffffffffffff1673ffffffffffffffffffffffffffffffffffffffff168152602001908152602001600020600101600085815260200190815260200160002060070160006101000a81548160ff02191690836004811115611848576118476128ba565b5b02179055506118d2565b6002600160008673ffffffffffffffffffffffffffffffffffffffff1673ffffffffffffffffffffffffffffffffffffffff168152602001908152602001600020600101600085815260200190815260200160002060070160006101000a81548160ff021916908360048111156118cc576118cb6128ba565b5b02179055505b5b50505050565b60606000600160003373ffffffffffffffffffffffffffffffffffffffff1673ffffffffffffffffffffffffffffffffffffffff1681526020019081526020016000206002015467ffffffffffffffff81111561193957611938612da1565b5b60405190808252806020026020018201604052801561197257816020015b61195f612653565b8152602001906001900390816119575790505b50905060005b600160003373ffffffffffffffffffffffffffffffffffffffff1673ffffffffffffffffffffffffffffffffffffffff16815260200190815260200160002060020154811015611cee57604051806101000160405280828152602001600160003373ffffffffffffffffffffffffffffffffffffffff1673ffffffffffffffffffffffffffffffffffffffff16815260200190815260200160002060010160008481526020019081526020016000206001018054611a3590613318565b80601f0160208091040260200160405190810160405280929190818152602001828054611a6190613318565b8015611aae5780601f10611a8357610100808354040283529160200191611aae565b820191906000526020600020905b815481529060010190602001808311611a9157829003601f168201915b50505050508152602001600160003373ffffffffffffffffffffffffffffffffffffffff1673ffffffffffffffffffffffffffffffffffffffff1681526020019081526020016000206001016000848152602001908152602001600020600301548152602001600160003373ffffffffffffffffffffffffffffffffffffffff1673ffffffffffffffffffffffffffffffffffffffff1681526020019081526020016000206001016000848152602001908152602001600020600401548152602001600160003373ffffffffffffffffffffffffffffffffffffffff1673ffffffffffffffffffffffffffffffffffffffff1681526020019081526020016000206001016000848152602001908152602001600020600501548152602001600160003373ffffffffffffffffffffffffffffffffffffffff1673ffffffffffffffffffffffffffffffffffffffff168152602001908152602001600020600101600084815260200190815260200160002060070160009054906101000a900460ff166004811115611c4257611c416128ba565b5b81526020013373ffffffffffffffffffffffffffffffffffffffff168152602001600160003373ffffffffffffffffffffffffffffffffffffffff1673ffffffffffffffffffffffffffffffffffffffff168152602001908152602001600020600101600084815260200190815260200160002060060154815250828281518110611cd057611ccf613349565b5b60200260200101819052508080611ce6906133a7565b915050611978565b508091505090565b6000806000806000600160008873ffffffffffffffffffffffffffffffffffffffff1673ffffffffffffffffffffffffffffffffffffffff168152602001908152602001600020600101600087815260200190815260200160002060000154600160008973ffffffffffffffffffffffffffffffffffffffff1673ffffffffffffffffffffffffffffffffffffffff168152602001908152602001600020600101600088815260200190815260200160002060030154600160008a73ffffffffffffffffffffffffffffffffffffffff1673ffffffffffffffffffffffffffffffffffffffff168152602001908152602001600020600101600089815260200190815260200160002060040154600160008b73ffffffffffffffffffffffffffffffffffffffff1673ffffffffffffffffffffffffffffffffffffffff16815260200190815260200160002060010160008a815260200190815260200160002060050154600160008c73ffffffffffffffffffffffffffffffffffffffff1673ffffffffffffffffffffffffffffffffffffffff16815260200190815260200160002060010160008b815260200190815260200160002060070160009054906101000a900460ff16945094509450945094509295509295909350565b600033905060016004811115611eeb57611eea6128ba565b5b600160008373ffffffffffffffffffffffffffffffffffffffff1673ffffffffffffffffffffffffffffffffffffffff168152602001908152602001600020600101600084815260200190815260200160002060070160009054906101000a900460ff166004811115611f6157611f606128ba565b5b148015611ff6575060036004811115611f7d57611f7c6128ba565b5b600160008373ffffffffffffffffffffffffffffffffffffffff1673ffffffffffffffffffffffffffffffffffffffff168152602001908152602001600020600101600084815260200190815260200160002060070160009054906101000a900460ff166004811115611ff357611ff26128ba565b5b14155b1561247f576003600160008373ffffffffffffffffffffffffffffffffffffffff1673ffffffffffffffffffffffffffffffffffffffff168152602001908152602001600020600101600084815260200190815260200160002060070160006101000a81548160ff02191690836004811115612075576120746128ba565b5b021790555042600160008373ffffffffffffffffffffffffffffffffffffffff1673ffffffffffffffffffffffffffffffffffffffff1681526020019081526020016000206001016000848152602001908152602001600020600401819055506003604051806101000160405280848152602001600160008573ffffffffffffffffffffffffffffffffffffffff1673ffffffffffffffffffffffffffffffffffffffff1681526020019081526020016000206001016000868152602001908152602001600020600101805461214a90613318565b80601f016020809104026020016040519081016040528092919081815260200182805461217690613318565b80156121c35780601f10612198576101008083540402835291602001916121c3565b820191906000526020600020905b8154815290600101906020018083116121a657829003601f168201915b50505050508152602001600160008573ffffffffffffffffffffffffffffffffffffffff1673ffffffffffffffffffffffffffffffffffffffff1681526020019081526020016000206001016000868152602001908152602001600020600301548152602001428152602001600160008573ffffffffffffffffffffffffffffffffffffffff1673ffffffffffffffffffffffffffffffffffffffff1681526020019081526020016000206001016000868152602001908152602001600020600501548152602001600160008573ffffffffffffffffffffffffffffffffffffffff1673ffffffffffffffffffffffffffffffffffffffff168152602001908152602001600020600101600086815260200190815260200160002060070160009054906101000a900460ff166004811115612301576123006128ba565b5b81526020013373ffffffffffffffffffffffffffffffffffffffff168152602001600160008573ffffffffffffffffffffffffffffffffffffffff1673ffffffffffffffffffffffffffffffffffffffff16815260200190815260200160002060010160008681526020019081526020016000206006015481525090806001815401808255809150506001900390600052602060002090600702016000909190919091506000820151816000015560208201518160010190816123c4919061362c565b5060408201518160020155606082015181600301556080820151816004015560a08201518160050160006101000a81548160ff0219169083600481111561240e5761240d6128ba565b5b021790555060c08201518160050160016101000a81548173ffffffffffffffffffffffffffffffffffffffff021916908373ffffffffffffffffffffffffffffffffffffffff16021790555060e08201518160060155505060046000815480929190612479906133a7565b91905055505b5050565b6003818154811061249357600080fd5b90600052602060002090600702016000915090508060000154908060010180546124bc90613318565b80601f01602080910402602001604051908101604052809291908181526020018280546124e890613318565b80156125355780601f1061250a57610100808354040283529160200191612535565b820191906000526020600020905b81548152906001019060200180831161251857829003601f168201915b5050505050908060020154908060030154908060040154908060050160009054906101000a900460ff16908060050160019054906101000a900473ffffffffffffffffffffffffffffffffffffffff16908060060154905088565b60405180610100016040528060008152602001606081526020016000815260200160608152602001600060028111156125cc576125cb6128ba565b5b8152602001600073ffffffffffffffffffffffffffffffffffffffff16815260200160008152602001600073ffffffffffffffffffffffffffffffffffffffff1681525090565b50805461261f90613318565b6000825580601f106126315750612650565b601f01602090049060005260206000209081019061264f91906126c0565b5b50565b604051806101000160405280600081526020016060815260200160008152602001600081526020016000815260200160006004811115612696576126956128ba565b5b8152602001600073ffffffffffffffffffffffffffffffffffffffff168152602001600081525090565b5b808211156126d95760008160009055506001016126c1565b5090565b6000819050919050565b6126f0816126dd565b82525050565b600060208201905061270b60008301846126e7565b92915050565b6000604051905090565b600080fd5b600080fd5b600073ffffffffffffffffffffffffffffffffffffffff82169050919050565b600061275082612725565b9050919050565b61276081612745565b811461276b57600080fd5b50565b60008135905061277d81612757565b92915050565b61278c816126dd565b811461279757600080fd5b50565b6000813590506127a981612783565b92915050565b600080604083850312156127c6576127c561271b565b5b60006127d48582860161276e565b92505060206127e58582860161279a565b9150509250929050565b600081519050919050565b600082825260208201905092915050565b6000819050602082019050919050565b612824816126dd565b82525050565b600081519050919050565b600082825260208201905092915050565b60005b83811015612864578082015181840152602081019050612849565b60008484015250505050565b6000601f19601f8301169050919050565b600061288c8261282a565b6128968185612835565b93506128a6818560208601612846565b6128af81612870565b840191505092915050565b7f4e487b7100000000000000000000000000000000000000000000000000000000600052602160045260246000fd5b600381106128fa576128f96128ba565b5b50565b600081905061290b826128e9565b919050565b600061291b826128fd565b9050919050565b61292b81612910565b82525050565b61293a81612745565b82525050565b600061010083016000830151612959600086018261281b565b50602083015184820360208601526129718282612881565b9150506040830151612986604086018261281b565b506060830151848203606086015261299e8282612881565b91505060808301516129b36080860182612922565b5060a08301516129c660a0860182612931565b5060c08301516129d960c086018261281b565b5060e08301516129ec60e0860182612931565b508091505092915050565b6000612a038383612940565b905092915050565b6000602082019050919050565b6000612a23826127ef565b612a2d81856127fa565b935083602082028501612a3f8561280b565b8060005b85811015612a7b5784840389528151612a5c85826129f7565b9450612a6783612a0b565b925060208a01995050600181019050612a43565b50829750879550505050505092915050565b60006020820190508181036000830152612aa78184612a18565b905092915050565b60008060008060808587031215612ac957612ac861271b565b5b6000612ad78782880161276e565b9450506020612ae88782880161279a565b9350506040612af98782880161279a565b9250506060612b0a8782880161279a565b91505092959194509250565b600081519050919050565b600082825260208201905092915050565b6000819050602082019050919050565b60058110612b5357612b526128ba565b5b50565b6000819050612b6482612b42565b919050565b6000612b7482612b56565b9050919050565b612b8481612b69565b82525050565b600061010083016000830151612ba3600086018261281b565b5060208301518482036020860152612bbb8282612881565b9150506040830151612bd0604086018261281b565b506060830151612be3606086018261281b565b506080830151612bf6608086018261281b565b5060a0830151612c0960a0860182612b7b565b5060c0830151612c1c60c0860182612931565b5060e0830151612c2f60e086018261281b565b508091505092915050565b6000612c468383612b8a565b905092915050565b6000602082019050919050565b6000612c6682612b16565b612c708185612b21565b935083602082028501612c8285612b32565b8060005b85811015612cbe5784840389528151612c9f8582612c3a565b9450612caa83612c4e565b925060208a01995050600181019050612c86565b50829750879550505050505092915050565b60006020820190508181036000830152612cea8184612c5b565b905092915050565b600060208284031215612d0857612d0761271b565b5b6000612d168482850161276e565b91505092915050565b612d2881612745565b82525050565b6000604082019050612d436000830185612d1f565b612d5060208301846126e7565b9392505050565b60008060408385031215612d6e57612d6d61271b565b5b6000612d7c8582860161279a565b9250506020612d8d8582860161279a565b9150509250929050565b600080fd5b600080fd5b7f4e487b7100000000000000000000000000000000000000000000000000000000600052604160045260246000fd5b612dd982612870565b810181811067ffffffffffffffff82111715612df857612df7612da1565b5b80604052505050565b6000612e0b612711565b9050612e178282612dd0565b919050565b600067ffffffffffffffff821115612e3757612e36612da1565b5b612e4082612870565b9050602081019050919050565b82818337600083830152505050565b6000612e6f612e6a84612e1c565b612e01565b905082815260208101848484011115612e8b57612e8a612d9c565b5b612e96848285612e4d565b509392505050565b600082601f830112612eb357612eb2612d97565b5b8135612ec3848260208601612e5c565b91505092915050565b600067ffffffffffffffff821115612ee757612ee6612da1565b5b602082029050602081019050919050565b600080fd5b600080fd5b600080fd5b600060608284031215612f1d57612f1c612efd565b5b612f276060612e01565b9050600082013567ffffffffffffffff811115612f4757612f46612f02565b5b612f5384828501612e9e565b6000830152506020612f678482850161279a565b602083015250604082013567ffffffffffffffff811115612f8b57612f8a612f02565b5b612f9784828501612e9e565b60408301525092915050565b6000612fb6612fb184612ecc565b612e01565b90508083825260208201905060208402830185811115612fd957612fd8612ef8565b5b835b8181101561302057803567ffffffffffffffff811115612ffe57612ffd612d97565b5b80860161300b8982612f07565b85526020850194505050602081019050612fdb565b5050509392505050565b600082601f83011261303f5761303e612d97565b5b813561304f848260208601612fa3565b91505092915050565b6000806040838503121561306f5761306e61271b565b5b600083013567ffffffffffffffff81111561308d5761308c612720565b5b61309985828601612e9e565b925050602083013567ffffffffffffffff8111156130ba576130b9612720565b5b6130c68582860161302a565b9150509250929050565b60008115159050919050565b6130e5816130d0565b81146130f057600080fd5b50565b600081359050613102816130dc565b92915050565b600080600080608085870312156131225761312161271b565b5b60006131308782880161276e565b94505060206131418782880161279a565b9350506040613152878288016130f3565b925050606085013567ffffffffffffffff81111561317357613172612720565b5b61317f87828801612e9e565b91505092959194509250565b61319481612b69565b82525050565b600060a0820190506131af60008301886126e7565b6131bc60208301876126e7565b6131c960408301866126e7565b6131d660608301856126e7565b6131e3608083018461318b565b9695505050505050565b6000602082840312156132035761320261271b565b5b60006132118482850161279a565b91505092915050565b600082825260208201905092915050565b60006132368261282a565b613240818561321a565b9350613250818560208601612846565b61325981612870565b840191505092915050565b60006101008201905061327a600083018b6126e7565b818103602083015261328c818a61322b565b905061329b60408301896126e7565b6132a860608301886126e7565b6132b560808301876126e7565b6132c260a083018661318b565b6132cf60c0830185612d1f565b6132dc60e08301846126e7565b9998505050505050505050565b7f4e487b7100000000000000000000000000000000000000000000000000000000600052602260045260246000fd5b6000600282049050600182168061333057607f821691505b602082108103613343576133426132e9565b5b50919050565b7f4e487b7100000000000000000000000000000000000000000000000000000000600052603260045260246000fd5b7f4e487b7100000000000000000000000000000000000000000000000000000000600052601160045260246000fd5b60006133b2826126dd565b91507fffffffffffffffffffffffffffffffffffffffffffffffffffffffffffffffff82036133e4576133e3613378565b5b600182019050919050565b60006133fa826126dd565b91506000820361340d5761340c613378565b5b600182039050919050565b6000613423826126dd565b915061342e836126dd565b925082820190508082111561344657613445613378565b5b92915050565b6000613457826126dd565b9150613462836126dd565b925082820390508181111561347a57613479613378565b5b92915050565b60008190508160005260206000209050919050565b60006020601f8301049050919050565b600082821b905092915050565b6000600883026134e27fffffffffffffffffffffffffffffffffffffffffffffffffffffffffffffffff826134a5565b6134ec86836134a5565b95508019841693508086168417925050509392505050565b6000819050919050565b600061352961352461351f846126dd565b613504565b6126dd565b9050919050565b6000819050919050565b6135438361350e565b61355761354f82613530565b8484546134b2565b825550505050565b600090565b61356c61355f565b61357781848461353a565b505050565b5b8181101561359b57613590600082613564565b60018101905061357d565b5050565b601f8211156135e0576135b181613480565b6135ba84613495565b810160208510156135c9578190505b6135dd6135d585613495565b83018261357c565b50505b505050565b600082821c905092915050565b6000613603600019846008026135e5565b1980831691505092915050565b600061361c83836135f2565b9150826002028217905092915050565b6136358261282a565b67ffffffffffffffff81111561364e5761364d612da1565b5b6136588254613318565b61366382828561359f565b600060209050601f8311600181146136965760008415613684578287015190505b61368e8582613610565b8655506136f6565b601f1984166136a486613480565b60005b828110156136cc578489015182556001820191506020850194506020810190506136a7565b868310156136e957848901516136e5601f8916826135f2565b8355505b6001600288020188555050505b505050505050565b600081905092915050565b6000815461371681613318565b61372081866136fe565b9450600182166000811461373b576001811461375057613783565b60ff1983168652811515820286019350613783565b61375985613480565b60005b8381101561377b5781548189015260018201915060208101905061375c565b838801955050505b50505092915050565b60006137988284613709565b915081905092915050565b60006137ae8261282a565b6137b881856136fe565b93506137c8818560208601612846565b80840191505092915050565b60006137e082846137a3565b91508190509291505056fea2646970667358221220315474ac9671a3dab9bfa3174624a946e74d7ade8c9fc00054c2f7c26ce86c5864736f6c63430008110033",
  "immutableReferences": {},
  "source": "// SPDX-License-Identifier: MIT\r\npragma solidity >=0.7.0 <0.9.0;\r\n\r\n/*\r\n    NG CNH:\r\n    - mi ngi c v metamask c th vo to phin u gi v ln cc sn phm mun u gi. sau khi xong th h phi gi cc vt phm \r\n    ln cho chng ti kim tra v m bo xc nhn vt phm l tht v chng ti s dng chc nng vi quyn admin  xc nhn phng u gi  hp l\r\n    v c th m phin u gi.\r\n    - sau khi u gi xong th chng ti s n 10% hoa hng ca tng tin m phng  u gi thnh cng.\r\n    - ngi u gi thnh cng s phi ln cng ty chng ti nhn vt phm m h u gi\r\n\r\n    CC CHC NNG:\r\n    - to phin u gi (mi ngi c v metamask u c th vo v m phin u gi)\r\n    - xc nhn u gi hp l (vo vi c ch admin  xc nhn phng u gi l hp l v c th m phin u gi)\r\n    - m u gi\r\n    - ng u gi (kt thc phin u gi, tin ngi no cao hn s nhn hng v tr trc tip lc thc hin vic tr tin m v  ko  tin th vt phm  s  trng\r\n    thi cha hp l v vic ny s l c ch vt l trao i vi 2 bn ngi u gi v ngi to phin u gi)\r\n    - u gi\r\n*/\r\n\r\ncontract Auction {\r\n    string secret = \"daylamatkhau\";\r\n    mapping(address => Room) public rooms;\r\n    uint countRoom;\r\n\r\n    SessionInfo[] public sessionsOpen;\r\n    uint public countSessionOpen;\r\n\r\n    struct Room{\r\n        address addressUser;\r\n        mapping(uint => Session) sessions;\r\n        uint countSession;\r\n    }\r\n\r\n    struct Session{\r\n        uint id;\r\n        string name;\r\n        mapping(uint => Product) products;\r\n        uint totalProduct;\r\n        uint openTime;\r\n        uint closeTime;\r\n        uint totalPrice;\r\n        SessionStatus status;\r\n    }\r\n\r\n    struct SessionInfo{\r\n        uint id;\r\n        string name;\r\n        uint totalProduct;\r\n        uint openTime;\r\n        uint closeTime;\r\n        SessionStatus status;\r\n        address ownerSession;\r\n        uint totalPrice;\r\n    }\r\n\r\n    struct Product {\r\n        uint id;\r\n        string name;\r\n        uint startPrice;\r\n        string linkImage;\r\n        ProductStatus status;\r\n        address addressWinner;\r\n        uint finalPrice;\r\n        address ownerProduct;\r\n    }\r\n\r\n    enum ProductStatus {\r\n        None,\r\n        Done,\r\n        Fail\r\n    }\r\n\r\n    enum SessionStatus{\r\n        None,\r\n        Valid,\r\n        Invalid,\r\n        Opened,\r\n        Close\r\n    }\r\n    struct ProductInput{\r\n        string name;\r\n        uint startPrice;\r\n        string linkImage;\r\n    }\r\n\r\n    function createSession(string memory name , ProductInput[] memory productInput) public {\r\n        if(rooms[msg.sender].addressUser == address(0x0)){\r\n            rooms[msg.sender].addressUser = msg.sender;\r\n            countRoom++;\r\n        }\r\n\r\n        uint countSession = rooms[msg.sender].countSession;\r\n        for(uint i = 0; i < productInput.length; i++)\r\n            rooms[msg.sender].sessions[countSession].products[i] = Product(\r\n                i,\r\n                productInput[i].name, \r\n                productInput[i].startPrice,\r\n                productInput[i].linkImage,\r\n                ProductStatus.None,\r\n                address(0x0),\r\n                productInput[i].startPrice,\r\n                msg.sender);\r\n        rooms[msg.sender].sessions[countSession].totalProduct = productInput.length;\r\n        rooms[msg.sender].sessions[countSession].status = SessionStatus.None;\r\n        rooms[msg.sender].sessions[countSession].name = name;\r\n        rooms[msg.sender].countSession++;\r\n    }\r\n\r\n    function openSession(uint sessionId) public {\r\n        address roomIndex = msg.sender;\r\n        if(rooms[roomIndex].sessions[sessionId].status == SessionStatus.Valid && rooms[roomIndex].sessions[sessionId].status != SessionStatus.Opened){\r\n            rooms[roomIndex].sessions[sessionId].status = SessionStatus.Opened;\r\n            rooms[roomIndex].sessions[sessionId].openTime = block.timestamp;\r\n            sessionsOpen.push(SessionInfo(\r\n                sessionId,\r\n                rooms[roomIndex].sessions[sessionId].name,\r\n                rooms[roomIndex].sessions[sessionId].totalProduct,\r\n                block.timestamp,\r\n                rooms[roomIndex].sessions[sessionId].closeTime,\r\n                rooms[roomIndex].sessions[sessionId].status,\r\n                msg.sender,\r\n                rooms[roomIndex].sessions[sessionId].totalPrice\r\n            ));\r\n            countSessionOpen++;\r\n        }\r\n    }\r\n\r\n    function closeSession(uint sessionId, uint index) public {\r\n        address roomIndex = msg.sender;\r\n        if(rooms[roomIndex].sessions[sessionId].status == SessionStatus.Opened){\r\n            rooms[roomIndex].sessions[sessionId].status = SessionStatus.Close;\r\n            rooms[roomIndex].sessions[sessionId].closeTime = block.timestamp;\r\n            delete sessionsOpen[index];\r\n            countSessionOpen--;\r\n\r\n            for(uint i = 0; i < rooms[roomIndex].sessions[sessionId].totalProduct; i++){\r\n                if(rooms[roomIndex].sessions[sessionId].products[i].addressWinner != address(0x0)){\r\n                    rooms[roomIndex].sessions[sessionId].totalPrice += rooms[roomIndex].sessions[sessionId].products[i].finalPrice;\r\n                }\r\n            }\r\n            if(rooms[roomIndex].sessions[sessionId].totalPrice > 5 * 1 * (10**18))\r\n                payable(msg.sender).transfer(rooms[roomIndex].sessions[sessionId].totalPrice - (5 * 1 * (10**18)));\r\n        }\r\n    }\r\n\r\n    function getSessionInfo(address ownerSession, uint sessionId) public view returns (uint id, uint totalProduct, uint openTime, uint closeTime, SessionStatus status){\r\n        return (\r\n            rooms[ownerSession].sessions[sessionId].id,\r\n            rooms[ownerSession].sessions[sessionId].totalProduct,\r\n            rooms[ownerSession].sessions[sessionId].openTime,\r\n            rooms[ownerSession].sessions[sessionId].closeTime,\r\n            rooms[ownerSession].sessions[sessionId].status);\r\n    }\r\n\r\n   function getListSessionOpen() public view returns (SessionInfo[] memory) {\r\n       return sessionsOpen;\r\n   }\r\n\r\n    function getMyListSession() public view returns (SessionInfo[] memory) {\r\n        SessionInfo[] memory sessionInfo = new SessionInfo[](rooms[msg.sender].countSession);\r\n        for(uint i = 0; i < rooms[msg.sender].countSession; i++){\r\n            sessionInfo[i] = SessionInfo(\r\n                i, \r\n                rooms[msg.sender].sessions[i].name, \r\n                rooms[msg.sender].sessions[i].totalProduct, \r\n                rooms[msg.sender].sessions[i].openTime, \r\n                rooms[msg.sender].sessions[i].closeTime, \r\n                rooms[msg.sender].sessions[i].status,\r\n                msg.sender,\r\n                rooms[msg.sender].sessions[i].totalPrice\r\n                );\r\n        }\r\n        return sessionInfo;\r\n    }\r\n\r\n    function getProductBySession(address ownerSession, uint sessionId) public view returns (Product[] memory) {\r\n        Product[] memory products = new Product[](rooms[ownerSession].sessions[sessionId].totalProduct);\r\n        for(uint i = 0; i < rooms[ownerSession].sessions[sessionId].totalProduct; i++){\r\n            products[i] = rooms[ownerSession].sessions[sessionId].products[i];\r\n        }\r\n        return products;\r\n    }\r\n\r\n    function upPriceProduct(address ownerProduct, uint sessionId, uint productId, uint price) external payable {\r\n                \r\n        if(rooms[ownerProduct].sessions[sessionId].products[productId].addressWinner != address(0x0)){\r\n            payable(rooms[ownerProduct].sessions[sessionId].products[productId].addressWinner).transfer(rooms[ownerProduct].sessions[sessionId].products[productId].finalPrice);\r\n        }\r\n\r\n        rooms[ownerProduct].sessions[sessionId].products[productId].finalPrice = price;\r\n        rooms[ownerProduct].sessions[sessionId].products[productId].addressWinner = msg.sender;\r\n    }\r\n\r\n    function confirmSession(address ownerSession, uint sessionId, bool isAccept, string memory secretInput) public {\r\n        if(bytes(secretInput).length != bytes(secret).length && keccak256(abi.encodePacked(secretInput)) != keccak256(abi.encodePacked(secret))) return;\r\n        if(rooms[ownerSession].sessions[sessionId].status != SessionStatus.None) return;\r\n        \r\n        if(isAccept){\r\n            rooms[ownerSession].sessions[sessionId].status = SessionStatus.Valid;\r\n        }else{\r\n            rooms[ownerSession].sessions[sessionId].status = SessionStatus.Invalid;\r\n        }\r\n    }\r\n}",
  "sourcePath": "D:\\learn\\Auction\\smart-contract\\contracts\\Auction.sol",
  "compiler": {
    "name": "solc",
    "version": "0.8.17+commit.8df45f5f.Emscripten.clang"
  },
  "schemaVersion": "3.4.10",
  "updatedAt": "2023-02-20T10:50:31.043Z",
  "networkType": "ethereum",
  "devdoc": {
    "kind": "dev",
    "methods": {},
    "version": 1
  },
  "userdoc": {
    "kind": "user",
    "methods": {},
    "version": 1
  }
}